{
  "_format": "hh-sol-artifact-1",
  "contractName": "Crowdfunding",
  "sourceName": "contracts/Crowdfunding.sol",
  "abi": [
    {
      "inputs": [
        {
          "internalType": "string",
          "name": "_name",
          "type": "string"
        },
        {
          "internalType": "string",
          "name": "_symbol",
          "type": "string"
        },
        {
          "internalType": "string",
          "name": "_initBaseURI",
          "type": "string"
        }
      ],
      "stateMutability": "nonpayable",
      "type": "constructor"
    },
    {
      "anonymous": false,
      "inputs": [
        {
          "indexed": true,
          "internalType": "address",
          "name": "owner",
          "type": "address"
        },
        {
          "indexed": true,
          "internalType": "address",
          "name": "approved",
          "type": "address"
        },
        {
          "indexed": true,
          "internalType": "uint256",
          "name": "tokenId",
          "type": "uint256"
        }
      ],
      "name": "Approval",
      "type": "event"
    },
    {
      "anonymous": false,
      "inputs": [
        {
          "indexed": true,
          "internalType": "address",
          "name": "owner",
          "type": "address"
        },
        {
          "indexed": true,
          "internalType": "address",
          "name": "operator",
          "type": "address"
        },
        {
          "indexed": false,
          "internalType": "bool",
          "name": "approved",
          "type": "bool"
        }
      ],
      "name": "ApprovalForAll",
      "type": "event"
    },
    {
      "anonymous": false,
      "inputs": [
        {
          "indexed": true,
          "internalType": "address",
          "name": "previousOwner",
          "type": "address"
        },
        {
          "indexed": true,
          "internalType": "address",
          "name": "newOwner",
          "type": "address"
        }
      ],
      "name": "OwnershipTransferred",
      "type": "event"
    },
    {
      "anonymous": false,
      "inputs": [
        {
          "indexed": true,
          "internalType": "address",
          "name": "_owner",
          "type": "address"
        },
        {
          "indexed": false,
          "internalType": "string",
          "name": "mail",
          "type": "string"
        },
        {
          "indexed": true,
          "internalType": "uint256",
          "name": "nftID",
          "type": "uint256"
        }
      ],
      "name": "Reward",
      "type": "event"
    },
    {
      "anonymous": false,
      "inputs": [
        {
          "indexed": true,
          "internalType": "address",
          "name": "from",
          "type": "address"
        },
        {
          "indexed": true,
          "internalType": "address",
          "name": "to",
          "type": "address"
        },
        {
          "indexed": true,
          "internalType": "uint256",
          "name": "tokenId",
          "type": "uint256"
        }
      ],
      "name": "Transfer",
      "type": "event"
    },
    {
      "inputs": [
        {
          "internalType": "address",
          "name": "to",
          "type": "address"
        },
        {
          "internalType": "uint256",
          "name": "tokenId",
          "type": "uint256"
        }
      ],
      "name": "approve",
      "outputs": [],
      "stateMutability": "nonpayable",
      "type": "function"
    },
    {
      "inputs": [
        {
          "internalType": "address",
          "name": "owner",
          "type": "address"
        }
      ],
      "name": "balanceOf",
      "outputs": [
        {
          "internalType": "uint256",
          "name": "",
          "type": "uint256"
        }
      ],
      "stateMutability": "view",
      "type": "function"
    },
    {
      "inputs": [],
      "name": "baseExtension",
      "outputs": [
        {
          "internalType": "string",
          "name": "",
          "type": "string"
        }
      ],
      "stateMutability": "view",
      "type": "function"
    },
    {
      "inputs": [
        {
          "internalType": "string",
          "name": "mail",
          "type": "string"
        },
        {
          "internalType": "uint256",
          "name": "nftId",
          "type": "uint256"
        }
      ],
      "name": "claimReward",
      "outputs": [],
      "stateMutability": "payable",
      "type": "function"
    },
    {
      "inputs": [],
      "name": "cost",
      "outputs": [
        {
          "internalType": "uint256",
          "name": "",
          "type": "uint256"
        }
      ],
      "stateMutability": "view",
      "type": "function"
    },
    {
      "inputs": [
        {
          "internalType": "uint256",
          "name": "tokenId",
          "type": "uint256"
        }
      ],
      "name": "getApproved",
      "outputs": [
        {
          "internalType": "address",
          "name": "",
          "type": "address"
        }
      ],
      "stateMutability": "view",
      "type": "function"
    },
    {
      "inputs": [
        {
          "internalType": "address",
          "name": "owner",
          "type": "address"
        },
        {
          "internalType": "address",
          "name": "operator",
          "type": "address"
        }
      ],
      "name": "isApprovedForAll",
      "outputs": [
        {
          "internalType": "bool",
          "name": "",
          "type": "bool"
        }
      ],
      "stateMutability": "view",
      "type": "function"
    },
    {
      "inputs": [],
      "name": "maxMintAmount",
      "outputs": [
        {
          "internalType": "uint256",
          "name": "",
          "type": "uint256"
        }
      ],
      "stateMutability": "view",
      "type": "function"
    },
    {
      "inputs": [],
      "name": "maxSupply",
      "outputs": [
        {
          "internalType": "uint256",
          "name": "",
          "type": "uint256"
        }
      ],
      "stateMutability": "view",
      "type": "function"
    },
    {
      "inputs": [
        {
          "internalType": "uint256",
          "name": "_mintAmount",
          "type": "uint256"
        }
      ],
      "name": "mint",
      "outputs": [],
      "stateMutability": "payable",
      "type": "function"
    },
    {
      "inputs": [],
      "name": "name",
      "outputs": [
        {
          "internalType": "string",
          "name": "",
          "type": "string"
        }
      ],
      "stateMutability": "view",
      "type": "function"
    },
    {
      "inputs": [],
      "name": "owner",
      "outputs": [
        {
          "internalType": "address",
          "name": "",
          "type": "address"
        }
      ],
      "stateMutability": "view",
      "type": "function"
    },
    {
      "inputs": [
        {
          "internalType": "uint256",
          "name": "tokenId",
          "type": "uint256"
        }
      ],
      "name": "ownerOf",
      "outputs": [
        {
          "internalType": "address",
          "name": "",
          "type": "address"
        }
      ],
      "stateMutability": "view",
      "type": "function"
    },
    {
      "inputs": [],
      "name": "renounceOwnership",
      "outputs": [],
      "stateMutability": "nonpayable",
      "type": "function"
    },
    {
      "inputs": [
        {
          "internalType": "address",
          "name": "from",
          "type": "address"
        },
        {
          "internalType": "address",
          "name": "to",
          "type": "address"
        },
        {
          "internalType": "uint256",
          "name": "tokenId",
          "type": "uint256"
        }
      ],
      "name": "safeTransferFrom",
      "outputs": [],
      "stateMutability": "nonpayable",
      "type": "function"
    },
    {
      "inputs": [
        {
          "internalType": "address",
          "name": "from",
          "type": "address"
        },
        {
          "internalType": "address",
          "name": "to",
          "type": "address"
        },
        {
          "internalType": "uint256",
          "name": "tokenId",
          "type": "uint256"
        },
        {
          "internalType": "bytes",
          "name": "data",
          "type": "bytes"
        }
      ],
      "name": "safeTransferFrom",
      "outputs": [],
      "stateMutability": "nonpayable",
      "type": "function"
    },
    {
      "inputs": [
        {
          "internalType": "address",
          "name": "operator",
          "type": "address"
        },
        {
          "internalType": "bool",
          "name": "approved",
          "type": "bool"
        }
      ],
      "name": "setApprovalForAll",
      "outputs": [],
      "stateMutability": "nonpayable",
      "type": "function"
    },
    {
      "inputs": [
        {
          "internalType": "string",
          "name": "_newBaseExtension",
          "type": "string"
        }
      ],
      "name": "setBaseExtension",
      "outputs": [],
      "stateMutability": "nonpayable",
      "type": "function"
    },
    {
      "inputs": [
        {
          "internalType": "string",
          "name": "_newBaseURI",
          "type": "string"
        }
      ],
      "name": "setBaseURI",
      "outputs": [],
      "stateMutability": "nonpayable",
      "type": "function"
    },
    {
      "inputs": [
        {
          "internalType": "uint256",
          "name": "_newmaxMintAmount",
          "type": "uint256"
        }
      ],
      "name": "setmaxMintAmount",
      "outputs": [],
      "stateMutability": "nonpayable",
      "type": "function"
    },
    {
      "inputs": [
        {
          "internalType": "bytes4",
          "name": "interfaceId",
          "type": "bytes4"
        }
      ],
      "name": "supportsInterface",
      "outputs": [
        {
          "internalType": "bool",
          "name": "",
          "type": "bool"
        }
      ],
      "stateMutability": "view",
      "type": "function"
    },
    {
      "inputs": [],
      "name": "symbol",
      "outputs": [
        {
          "internalType": "string",
          "name": "",
          "type": "string"
        }
      ],
      "stateMutability": "view",
      "type": "function"
    },
    {
      "inputs": [
        {
          "internalType": "uint256",
          "name": "index",
          "type": "uint256"
        }
      ],
      "name": "tokenByIndex",
      "outputs": [
        {
          "internalType": "uint256",
          "name": "",
          "type": "uint256"
        }
      ],
      "stateMutability": "view",
      "type": "function"
    },
    {
      "inputs": [
        {
          "internalType": "address",
          "name": "owner",
          "type": "address"
        },
        {
          "internalType": "uint256",
          "name": "index",
          "type": "uint256"
        }
      ],
      "name": "tokenOfOwnerByIndex",
      "outputs": [
        {
          "internalType": "uint256",
          "name": "",
          "type": "uint256"
        }
      ],
      "stateMutability": "view",
      "type": "function"
    },
    {
      "inputs": [
        {
          "internalType": "uint256",
          "name": "tokenId",
          "type": "uint256"
        }
      ],
      "name": "tokenURI",
      "outputs": [
        {
          "internalType": "string",
          "name": "",
          "type": "string"
        }
      ],
      "stateMutability": "view",
      "type": "function"
    },
    {
      "inputs": [],
      "name": "totalSupply",
      "outputs": [
        {
          "internalType": "uint256",
          "name": "",
          "type": "uint256"
        }
      ],
      "stateMutability": "view",
      "type": "function"
    },
    {
      "inputs": [
        {
          "internalType": "address",
          "name": "from",
          "type": "address"
        },
        {
          "internalType": "address",
          "name": "to",
          "type": "address"
        },
        {
          "internalType": "uint256",
          "name": "tokenId",
          "type": "uint256"
        }
      ],
      "name": "transferFrom",
      "outputs": [],
      "stateMutability": "nonpayable",
      "type": "function"
    },
    {
      "inputs": [
        {
          "internalType": "address",
          "name": "newOwner",
          "type": "address"
        }
      ],
      "name": "transferOwnership",
      "outputs": [],
      "stateMutability": "nonpayable",
      "type": "function"
    },
    {
      "inputs": [
        {
          "internalType": "address",
          "name": "_owner",
          "type": "address"
        }
      ],
      "name": "walletOfOwner",
      "outputs": [
        {
          "internalType": "uint256[]",
          "name": "",
          "type": "uint256[]"
        }
      ],
      "stateMutability": "view",
      "type": "function"
    },
    {
      "inputs": [],
      "name": "withdraw",
      "outputs": [],
      "stateMutability": "payable",
      "type": "function"
    }
  ],
  "bytecode": "0x60806040526040518060400160405280600581526020017f2e6a736f6e000000000000000000000000000000000000000000000000000000815250600c90816200004a91906200051e565b5066b1a2bc2ec50000600d55610190600e556014600f553480156200006e57600080fd5b5060405162004bf138038062004bf1833981810160405281019062000094919062000769565b82828160009081620000a791906200051e565b508060019081620000b991906200051e565b505050620000dc620000d0620000f660201b60201c565b620000fe60201b60201c565b620000ed81620001c460201b60201c565b505050620008a5565b600033905090565b6000600a60009054906101000a900473ffffffffffffffffffffffffffffffffffffffff16905081600a60006101000a81548173ffffffffffffffffffffffffffffffffffffffff021916908373ffffffffffffffffffffffffffffffffffffffff1602179055508173ffffffffffffffffffffffffffffffffffffffff168173ffffffffffffffffffffffffffffffffffffffff167f8be0079c531659141344cd1fd0a4f28419497f9722a3daafe3b4186f6b6457e060405160405180910390a35050565b620001d4620001e960201b60201c565b80600b9081620001e591906200051e565b5050565b620001f9620000f660201b60201c565b73ffffffffffffffffffffffffffffffffffffffff166200021f6200027a60201b60201c565b73ffffffffffffffffffffffffffffffffffffffff161462000278576040517f08c379a00000000000000000000000000000000000000000000000000000000081526004016200026f9062000883565b60405180910390fd5b565b6000600a60009054906101000a900473ffffffffffffffffffffffffffffffffffffffff16905090565b600081519050919050565b7f4e487b7100000000000000000000000000000000000000000000000000000000600052604160045260246000fd5b7f4e487b7100000000000000000000000000000000000000000000000000000000600052602260045260246000fd5b600060028204905060018216806200032657607f821691505b6020821081036200033c576200033b620002de565b5b50919050565b60008190508160005260206000209050919050565b60006020601f8301049050919050565b600082821b905092915050565b600060088302620003a67fffffffffffffffffffffffffffffffffffffffffffffffffffffffffffffffff8262000367565b620003b2868362000367565b95508019841693508086168417925050509392505050565b6000819050919050565b6000819050919050565b6000620003ff620003f9620003f384620003ca565b620003d4565b620003ca565b9050919050565b6000819050919050565b6200041b83620003de565b620004336200042a8262000406565b84845462000374565b825550505050565b600090565b6200044a6200043b565b6200045781848462000410565b505050565b5b818110156200047f576200047360008262000440565b6001810190506200045d565b5050565b601f821115620004ce57620004988162000342565b620004a38462000357565b81016020851015620004b3578190505b620004cb620004c28562000357565b8301826200045c565b50505b505050565b600082821c905092915050565b6000620004f360001984600802620004d3565b1980831691505092915050565b60006200050e8383620004e0565b9150826002028217905092915050565b6200052982620002a4565b67ffffffffffffffff811115620005455762000544620002af565b5b6200055182546200030d565b6200055e82828562000483565b600060209050601f83116001811462000596576000841562000581578287015190505b6200058d858262000500565b865550620005fd565b601f198416620005a68662000342565b60005b82811015620005d057848901518255600182019150602085019450602081019050620005a9565b86831015620005f05784890151620005ec601f891682620004e0565b8355505b6001600288020188555050505b505050505050565b6000604051905090565b600080fd5b600080fd5b600080fd5b600080fd5b6000601f19601f8301169050919050565b6200063f8262000623565b810181811067ffffffffffffffff82111715620006615762000660620002af565b5b80604052505050565b60006200067662000605565b905062000684828262000634565b919050565b600067ffffffffffffffff821115620006a757620006a6620002af565b5b620006b28262000623565b9050602081019050919050565b60005b83811015620006df578082015181840152602081019050620006c2565b60008484015250505050565b600062000702620006fc8462000689565b6200066a565b9050828152602081018484840111156200072157620007206200061e565b5b6200072e848285620006bf565b509392505050565b600082601f8301126200074e576200074d62000619565b5b815162000760848260208601620006eb565b91505092915050565b6000806000606084860312156200078557620007846200060f565b5b600084015167ffffffffffffffff811115620007a657620007a562000614565b5b620007b48682870162000736565b935050602084015167ffffffffffffffff811115620007d857620007d762000614565b5b620007e68682870162000736565b925050604084015167ffffffffffffffff8111156200080a576200080962000614565b5b620008188682870162000736565b9150509250925092565b600082825260208201905092915050565b7f4f776e61626c653a2063616c6c6572206973206e6f7420746865206f776e6572600082015250565b60006200086b60208362000822565b9150620008788262000833565b602082019050919050565b600060208201905081810360008301526200089e816200085c565b9050919050565b61433c80620008b56000396000f3fe6080604052600436106101cd5760003560e01c80636352211e116100f7578063a22cb46511610095578063d5abeb0111610064578063d5abeb011461065f578063da3ef23f1461068a578063e985e9c5146106b3578063f2fde38b146106f0576101cd565b8063a22cb465146105a5578063b88d4fde146105ce578063c6682862146105f7578063c87b56dd14610622576101cd565b80637f00c7a6116100d15780637f00c7a61461050a5780638da5cb5b1461053357806395d89b411461055e578063a0712d6814610589576101cd565b80636352211e1461047957806370a08231146104b6578063715018a6146104f3576101cd565b806323b872dd1161016f5780634294e96a1161013e5780634294e96a146103ba578063438b6300146103d65780634f6ccce71461041357806355f804b314610450576101cd565b806323b872dd146103215780632f745c591461034a5780633ccfd60b1461038757806342842e0e14610391576101cd565b8063095ea7b3116101ab578063095ea7b31461027757806313faede6146102a057806318160ddd146102cb578063239c70ae146102f6576101cd565b806301ffc9a7146101d257806306fdde031461020f578063081812fc1461023a575b600080fd5b3480156101de57600080fd5b506101f960048036038101906101f49190612971565b610719565b60405161020691906129b9565b60405180910390f35b34801561021b57600080fd5b50610224610793565b6040516102319190612a64565b60405180910390f35b34801561024657600080fd5b50610261600480360381019061025c9190612abc565b610825565b60405161026e9190612b2a565b60405180910390f35b34801561028357600080fd5b5061029e60048036038101906102999190612b71565b61086b565b005b3480156102ac57600080fd5b506102b5610982565b6040516102c29190612bc0565b60405180910390f35b3480156102d757600080fd5b506102e0610988565b6040516102ed9190612bc0565b60405180910390f35b34801561030257600080fd5b5061030b610995565b6040516103189190612bc0565b60405180910390f35b34801561032d57600080fd5b5061034860048036038101906103439190612bdb565b61099b565b005b34801561035657600080fd5b50610371600480360381019061036c9190612b71565b6109fb565b60405161037e9190612bc0565b60405180910390f35b61038f610aa0565b005b34801561039d57600080fd5b506103b860048036038101906103b39190612bdb565b610b5e565b005b6103d460048036038101906103cf9190612d63565b610b7e565b005b3480156103e257600080fd5b506103fd60048036038101906103f89190612dbf565b610c47565b60405161040a9190612eaa565b60405180910390f35b34801561041f57600080fd5b5061043a60048036038101906104359190612abc565b610cf5565b6040516104479190612bc0565b60405180910390f35b34801561045c57600080fd5b5061047760048036038101906104729190612ecc565b610d66565b005b34801561048557600080fd5b506104a0600480360381019061049b9190612abc565b610d81565b6040516104ad9190612b2a565b60405180910390f35b3480156104c257600080fd5b506104dd60048036038101906104d89190612dbf565b610e07565b6040516104ea9190612bc0565b60405180910390f35b3480156104ff57600080fd5b50610508610ebe565b005b34801561051657600080fd5b50610531600480360381019061052c9190612abc565b610ed2565b005b34801561053f57600080fd5b50610548610ee4565b6040516105559190612b2a565b60405180910390f35b34801561056a57600080fd5b50610573610f0e565b6040516105809190612a64565b60405180910390f35b6105a3600480360381019061059e9190612abc565b610fa0565b005b3480156105b157600080fd5b506105cc60048036038101906105c79190612f41565b61114a565b005b3480156105da57600080fd5b506105f560048036038101906105f09190613022565b611160565b005b34801561060357600080fd5b5061060c6111c2565b6040516106199190612a64565b60405180910390f35b34801561062e57600080fd5b5061064960048036038101906106449190612abc565b611250565b6040516106569190612a64565b60405180910390f35b34801561066b57600080fd5b506106746112fa565b6040516106819190612bc0565b60405180910390f35b34801561069657600080fd5b506106b160048036038101906106ac9190612ecc565b611300565b005b3480156106bf57600080fd5b506106da60048036038101906106d591906130a5565b61131b565b6040516106e791906129b9565b60405180910390f35b3480156106fc57600080fd5b5061071760048036038101906107129190612dbf565b6113af565b005b60007f780e9d63000000000000000000000000000000000000000000000000000000007bffffffffffffffffffffffffffffffffffffffffffffffffffffffff1916827bffffffffffffffffffffffffffffffffffffffffffffffffffffffff1916148061078c575061078b82611432565b5b9050919050565b6060600080546107a290613114565b80601f01602080910402602001604051908101604052809291908181526020018280546107ce90613114565b801561081b5780601f106107f05761010080835404028352916020019161081b565b820191906000526020600020905b8154815290600101906020018083116107fe57829003601f168201915b5050505050905090565b600061083082611514565b6004600083815260200190815260200160002060009054906101000a900473ffffffffffffffffffffffffffffffffffffffff169050919050565b600061087682610d81565b90508073ffffffffffffffffffffffffffffffffffffffff168373ffffffffffffffffffffffffffffffffffffffff16036108e6576040517f08c379a00000000000000000000000000000000000000000000000000000000081526004016108dd906131b7565b60405180910390fd5b8073ffffffffffffffffffffffffffffffffffffffff1661090561155f565b73ffffffffffffffffffffffffffffffffffffffff16148061093457506109338161092e61155f565b61131b565b5b610973576040517f08c379a000000000000000000000000000000000000000000000000000000000815260040161096a90613249565b60405180910390fd5b61097d8383611567565b505050565b600d5481565b6000600880549050905090565b600f5481565b6109ac6109a661155f565b82611620565b6109eb576040517f08c379a00000000000000000000000000000000000000000000000000000000081526004016109e2906132db565b60405180910390fd5b6109f68383836116b5565b505050565b6000610a0683610e07565b8210610a47576040517f08c379a0000000000000000000000000000000000000000000000000000000008152600401610a3e9061336d565b60405180910390fd5b600660008473ffffffffffffffffffffffffffffffffffffffff1673ffffffffffffffffffffffffffffffffffffffff168152602001908152602001600020600083815260200190815260200160002054905092915050565b610aa86119ae565b6000610ab2610ee4565b73ffffffffffffffffffffffffffffffffffffffff1647604051610ad5906133be565b60006040518083038185875af1925050503d8060008114610b12576040519150601f19603f3d011682016040523d82523d6000602084013e610b17565b606091505b5050905080610b5b576040517f08c379a0000000000000000000000000000000000000000000000000000000008152600401610b529061341f565b60405180910390fd5b50565b610b7983838360405180602001604052806000815250611160565b505050565b3373ffffffffffffffffffffffffffffffffffffffff16610b9e82610d81565b73ffffffffffffffffffffffffffffffffffffffff1614610bf4576040517f08c379a0000000000000000000000000000000000000000000000000000000008152600401610beb9061348b565b60405180910390fd5b803373ffffffffffffffffffffffffffffffffffffffff167fa058b2c11827da24911ea96274539449cd77e710ef3022743975d43a33b165dc84604051610c3b9190612a64565b60405180910390a35050565b60606000610c5483610e07565b905060008167ffffffffffffffff811115610c7257610c71612c38565b5b604051908082528060200260200182016040528015610ca05781602001602082028036833780820191505090505b50905060005b82811015610cea57610cb885826109fb565b828281518110610ccb57610cca6134ab565b5b6020026020010181815250508080610ce290613509565b915050610ca6565b508092505050919050565b6000610cff610988565b8210610d40576040517f08c379a0000000000000000000000000000000000000000000000000000000008152600401610d37906135c3565b60405180910390fd5b60088281548110610d5457610d536134ab565b5b90600052602060002001549050919050565b610d6e6119ae565b80600b9081610d7d919061378f565b5050565b600080610d8d83611a2c565b9050600073ffffffffffffffffffffffffffffffffffffffff168173ffffffffffffffffffffffffffffffffffffffff1603610dfe576040517f08c379a0000000000000000000000000000000000000000000000000000000008152600401610df5906138ad565b60405180910390fd5b80915050919050565b60008073ffffffffffffffffffffffffffffffffffffffff168273ffffffffffffffffffffffffffffffffffffffff1603610e77576040517f08c379a0000000000000000000000000000000000000000000000000000000008152600401610e6e9061393f565b60405180910390fd5b600360008373ffffffffffffffffffffffffffffffffffffffff1673ffffffffffffffffffffffffffffffffffffffff168152602001908152602001600020549050919050565b610ec66119ae565b610ed06000611a69565b565b610eda6119ae565b80600f8190555050565b6000600a60009054906101000a900473ffffffffffffffffffffffffffffffffffffffff16905090565b606060018054610f1d90613114565b80601f0160208091040260200160405190810160405280929190818152602001828054610f4990613114565b8015610f965780601f10610f6b57610100808354040283529160200191610f96565b820191906000526020600020905b815481529060010190602001808311610f7957829003601f168201915b5050505050905090565b6000610faa610988565b905060008211610fef576040517f08c379a0000000000000000000000000000000000000000000000000000000008152600401610fe6906139ab565b60405180910390fd5b600f54821115611034576040517f08c379a000000000000000000000000000000000000000000000000000000000815260040161102b90613a17565b60405180910390fd5b600e5482826110439190613a37565b1115611084576040517f08c379a000000000000000000000000000000000000000000000000000000000815260040161107b90613ab7565b60405180910390fd5b61108c610ee4565b73ffffffffffffffffffffffffffffffffffffffff163373ffffffffffffffffffffffffffffffffffffffff161461110f5781600d546110cc9190613ad7565b34101561110e576040517f08c379a000000000000000000000000000000000000000000000000000000000815260040161110590613b65565b60405180910390fd5b5b6000600190505b8281116111455761113233828461112d9190613a37565b611b2f565b808061113d90613509565b915050611116565b505050565b61115c61115561155f565b8383611b4d565b5050565b61117161116b61155f565b83611620565b6111b0576040517f08c379a00000000000000000000000000000000000000000000000000000000081526004016111a7906132db565b60405180910390fd5b6111bc84848484611cb9565b50505050565b600c80546111cf90613114565b80601f01602080910402602001604051908101604052809291908181526020018280546111fb90613114565b80156112485780601f1061121d57610100808354040283529160200191611248565b820191906000526020600020905b81548152906001019060200180831161122b57829003601f168201915b505050505081565b606061125b82611d15565b61129a576040517f08c379a000000000000000000000000000000000000000000000000000000000815260040161129190613bf7565b60405180910390fd5b60006112a4611d56565b905060008151116112c457604051806020016040528060008152506112f2565b806112ce84611de8565b600c6040516020016112e293929190613cd6565b6040516020818303038152906040525b915050919050565b600e5481565b6113086119ae565b80600c9081611317919061378f565b5050565b6000600560008473ffffffffffffffffffffffffffffffffffffffff1673ffffffffffffffffffffffffffffffffffffffff16815260200190815260200160002060008373ffffffffffffffffffffffffffffffffffffffff1673ffffffffffffffffffffffffffffffffffffffff16815260200190815260200160002060009054906101000a900460ff16905092915050565b6113b76119ae565b600073ffffffffffffffffffffffffffffffffffffffff168173ffffffffffffffffffffffffffffffffffffffff1603611426576040517f08c379a000000000000000000000000000000000000000000000000000000000815260040161141d90613d79565b60405180910390fd5b61142f81611a69565b50565b60007f80ac58cd000000000000000000000000000000000000000000000000000000007bffffffffffffffffffffffffffffffffffffffffffffffffffffffff1916827bffffffffffffffffffffffffffffffffffffffffffffffffffffffff191614806114fd57507f5b5e139f000000000000000000000000000000000000000000000000000000007bffffffffffffffffffffffffffffffffffffffffffffffffffffffff1916827bffffffffffffffffffffffffffffffffffffffffffffffffffffffff1916145b8061150d575061150c82611eb6565b5b9050919050565b61151d81611d15565b61155c576040517f08c379a0000000000000000000000000000000000000000000000000000000008152600401611553906138ad565b60405180910390fd5b50565b600033905090565b816004600083815260200190815260200160002060006101000a81548173ffffffffffffffffffffffffffffffffffffffff021916908373ffffffffffffffffffffffffffffffffffffffff160217905550808273ffffffffffffffffffffffffffffffffffffffff166115da83610d81565b73ffffffffffffffffffffffffffffffffffffffff167f8c5be1e5ebec7d5bd14f71427d1e84f3dd0314c0f7b2291e5b200ac8c7c3b92560405160405180910390a45050565b60008061162c83610d81565b90508073ffffffffffffffffffffffffffffffffffffffff168473ffffffffffffffffffffffffffffffffffffffff16148061166e575061166d818561131b565b5b806116ac57508373ffffffffffffffffffffffffffffffffffffffff1661169484610825565b73ffffffffffffffffffffffffffffffffffffffff16145b91505092915050565b8273ffffffffffffffffffffffffffffffffffffffff166116d582610d81565b73ffffffffffffffffffffffffffffffffffffffff161461172b576040517f08c379a000000000000000000000000000000000000000000000000000000000815260040161172290613e0b565b60405180910390fd5b600073ffffffffffffffffffffffffffffffffffffffff168273ffffffffffffffffffffffffffffffffffffffff160361179a576040517f08c379a000000000000000000000000000000000000000000000000000000000815260040161179190613e9d565b60405180910390fd5b6117a78383836001611f20565b8273ffffffffffffffffffffffffffffffffffffffff166117c782610d81565b73ffffffffffffffffffffffffffffffffffffffff161461181d576040517f08c379a000000000000000000000000000000000000000000000000000000000815260040161181490613e0b565b60405180910390fd5b6004600082815260200190815260200160002060006101000a81549073ffffffffffffffffffffffffffffffffffffffff02191690556001600360008573ffffffffffffffffffffffffffffffffffffffff1673ffffffffffffffffffffffffffffffffffffffff168152602001908152602001600020600082825403925050819055506001600360008473ffffffffffffffffffffffffffffffffffffffff1673ffffffffffffffffffffffffffffffffffffffff16815260200190815260200160002060008282540192505081905550816002600083815260200190815260200160002060006101000a81548173ffffffffffffffffffffffffffffffffffffffff021916908373ffffffffffffffffffffffffffffffffffffffff160217905550808273ffffffffffffffffffffffffffffffffffffffff168473ffffffffffffffffffffffffffffffffffffffff167fddf252ad1be2c89b69c2b068fc378daa952ba7f163c4a11628f55a4df523b3ef60405160405180910390a46119a9838383600161207e565b505050565b6119b661155f565b73ffffffffffffffffffffffffffffffffffffffff166119d4610ee4565b73ffffffffffffffffffffffffffffffffffffffff1614611a2a576040517f08c379a0000000000000000000000000000000000000000000000000000000008152600401611a2190613f09565b60405180910390fd5b565b60006002600083815260200190815260200160002060009054906101000a900473ffffffffffffffffffffffffffffffffffffffff169050919050565b6000600a60009054906101000a900473ffffffffffffffffffffffffffffffffffffffff16905081600a60006101000a81548173ffffffffffffffffffffffffffffffffffffffff021916908373ffffffffffffffffffffffffffffffffffffffff1602179055508173ffffffffffffffffffffffffffffffffffffffff168173ffffffffffffffffffffffffffffffffffffffff167f8be0079c531659141344cd1fd0a4f28419497f9722a3daafe3b4186f6b6457e060405160405180910390a35050565b611b49828260405180602001604052806000815250612084565b5050565b8173ffffffffffffffffffffffffffffffffffffffff168373ffffffffffffffffffffffffffffffffffffffff1603611bbb576040517f08c379a0000000000000000000000000000000000000000000000000000000008152600401611bb290613f75565b60405180910390fd5b80600560008573ffffffffffffffffffffffffffffffffffffffff1673ffffffffffffffffffffffffffffffffffffffff16815260200190815260200160002060008473ffffffffffffffffffffffffffffffffffffffff1673ffffffffffffffffffffffffffffffffffffffff16815260200190815260200160002060006101000a81548160ff0219169083151502179055508173ffffffffffffffffffffffffffffffffffffffff168373ffffffffffffffffffffffffffffffffffffffff167f17307eab39ab6107e8899845ad3d59bd9653f200f220920489ca2b5937696c3183604051611cac91906129b9565b60405180910390a3505050565b611cc48484846116b5565b611cd0848484846120df565b611d0f576040517f08c379a0000000000000000000000000000000000000000000000000000000008152600401611d0690614007565b60405180910390fd5b50505050565b60008073ffffffffffffffffffffffffffffffffffffffff16611d3783611a2c565b73ffffffffffffffffffffffffffffffffffffffff1614159050919050565b6060600b8054611d6590613114565b80601f0160208091040260200160405190810160405280929190818152602001828054611d9190613114565b8015611dde5780601f10611db357610100808354040283529160200191611dde565b820191906000526020600020905b815481529060010190602001808311611dc157829003601f168201915b5050505050905090565b606060006001611df784612266565b01905060008167ffffffffffffffff811115611e1657611e15612c38565b5b6040519080825280601f01601f191660200182016040528015611e485781602001600182028036833780820191505090505b509050600082602001820190505b600115611eab578080600190039150507f3031323334353637383961626364656600000000000000000000000000000000600a86061a8153600a8581611e9f57611e9e614027565b5b04945060008503611e56575b819350505050919050565b60007f01ffc9a7000000000000000000000000000000000000000000000000000000007bffffffffffffffffffffffffffffffffffffffffffffffffffffffff1916827bffffffffffffffffffffffffffffffffffffffffffffffffffffffff1916149050919050565b611f2c848484846123b9565b6001811115611f70576040517f08c379a0000000000000000000000000000000000000000000000000000000008152600401611f67906140c8565b60405180910390fd5b6000829050600073ffffffffffffffffffffffffffffffffffffffff168573ffffffffffffffffffffffffffffffffffffffff1603611fb757611fb2816123bf565b611ff6565b8373ffffffffffffffffffffffffffffffffffffffff168573ffffffffffffffffffffffffffffffffffffffff1614611ff557611ff48582612408565b5b5b600073ffffffffffffffffffffffffffffffffffffffff168473ffffffffffffffffffffffffffffffffffffffff16036120385761203381612575565b612077565b8473ffffffffffffffffffffffffffffffffffffffff168473ffffffffffffffffffffffffffffffffffffffff1614612076576120758482612646565b5b5b5050505050565b50505050565b61208e83836126c5565b61209b60008484846120df565b6120da576040517f08c379a00000000000000000000000000000000000000000000000000000000081526004016120d190614007565b60405180910390fd5b505050565b60006121008473ffffffffffffffffffffffffffffffffffffffff166128e2565b15612259578373ffffffffffffffffffffffffffffffffffffffff1663150b7a0261212961155f565b8786866040518563ffffffff1660e01b815260040161214b949392919061413d565b6020604051808303816000875af192505050801561218757506040513d601f19601f82011682018060405250810190612184919061419e565b60015b612209573d80600081146121b7576040519150601f19603f3d011682016040523d82523d6000602084013e6121bc565b606091505b506000815103612201576040517f08c379a00000000000000000000000000000000000000000000000000000000081526004016121f890614007565b60405180910390fd5b805181602001fd5b63150b7a0260e01b7bffffffffffffffffffffffffffffffffffffffffffffffffffffffff1916817bffffffffffffffffffffffffffffffffffffffffffffffffffffffff19161491505061225e565b600190505b949350505050565b600080600090507a184f03e93ff9f4daa797ed6e38ed64bf6a1f01000000000000000083106122c4577a184f03e93ff9f4daa797ed6e38ed64bf6a1f01000000000000000083816122ba576122b9614027565b5b0492506040810190505b6d04ee2d6d415b85acef81000000008310612301576d04ee2d6d415b85acef810000000083816122f7576122f6614027565b5b0492506020810190505b662386f26fc10000831061233057662386f26fc10000838161232657612325614027565b5b0492506010810190505b6305f5e1008310612359576305f5e100838161234f5761234e614027565b5b0492506008810190505b612710831061237e57612710838161237457612373614027565b5b0492506004810190505b606483106123a1576064838161239757612396614027565b5b0492506002810190505b600a83106123b0576001810190505b80915050919050565b50505050565b6008805490506009600083815260200190815260200160002081905550600881908060018154018082558091505060019003906000526020600020016000909190919091505550565b6000600161241584610e07565b61241f91906141cb565b9050600060076000848152602001908152602001600020549050818114612504576000600660008673ffffffffffffffffffffffffffffffffffffffff1673ffffffffffffffffffffffffffffffffffffffff168152602001908152602001600020600084815260200190815260200160002054905080600660008773ffffffffffffffffffffffffffffffffffffffff1673ffffffffffffffffffffffffffffffffffffffff168152602001908152602001600020600084815260200190815260200160002081905550816007600083815260200190815260200160002081905550505b6007600084815260200190815260200160002060009055600660008573ffffffffffffffffffffffffffffffffffffffff1673ffffffffffffffffffffffffffffffffffffffff16815260200190815260200160002060008381526020019081526020016000206000905550505050565b6000600160088054905061258991906141cb565b90506000600960008481526020019081526020016000205490506000600883815481106125b9576125b86134ab565b5b9060005260206000200154905080600883815481106125db576125da6134ab565b5b90600052602060002001819055508160096000838152602001908152602001600020819055506009600085815260200190815260200160002060009055600880548061262a576126296141ff565b5b6001900381819060005260206000200160009055905550505050565b600061265183610e07565b905081600660008573ffffffffffffffffffffffffffffffffffffffff1673ffffffffffffffffffffffffffffffffffffffff168152602001908152602001600020600083815260200190815260200160002081905550806007600084815260200190815260200160002081905550505050565b600073ffffffffffffffffffffffffffffffffffffffff168273ffffffffffffffffffffffffffffffffffffffff1603612734576040517f08c379a000000000000000000000000000000000000000000000000000000000815260040161272b9061427a565b60405180910390fd5b61273d81611d15565b1561277d576040517f08c379a0000000000000000000000000000000000000000000000000000000008152600401612774906142e6565b60405180910390fd5b61278b600083836001611f20565b61279481611d15565b156127d4576040517f08c379a00000000000000000000000000000000000000000000000000000000081526004016127cb906142e6565b60405180910390fd5b6001600360008473ffffffffffffffffffffffffffffffffffffffff1673ffffffffffffffffffffffffffffffffffffffff16815260200190815260200160002060008282540192505081905550816002600083815260200190815260200160002060006101000a81548173ffffffffffffffffffffffffffffffffffffffff021916908373ffffffffffffffffffffffffffffffffffffffff160217905550808273ffffffffffffffffffffffffffffffffffffffff16600073ffffffffffffffffffffffffffffffffffffffff167fddf252ad1be2c89b69c2b068fc378daa952ba7f163c4a11628f55a4df523b3ef60405160405180910390a46128de60008383600161207e565b5050565b6000808273ffffffffffffffffffffffffffffffffffffffff163b119050919050565b6000604051905090565b600080fd5b600080fd5b60007fffffffff0000000000000000000000000000000000000000000000000000000082169050919050565b61294e81612919565b811461295957600080fd5b50565b60008135905061296b81612945565b92915050565b6000602082840312156129875761298661290f565b5b60006129958482850161295c565b91505092915050565b60008115159050919050565b6129b38161299e565b82525050565b60006020820190506129ce60008301846129aa565b92915050565b600081519050919050565b600082825260208201905092915050565b60005b83811015612a0e5780820151818401526020810190506129f3565b60008484015250505050565b6000601f19601f8301169050919050565b6000612a36826129d4565b612a4081856129df565b9350612a508185602086016129f0565b612a5981612a1a565b840191505092915050565b60006020820190508181036000830152612a7e8184612a2b565b905092915050565b6000819050919050565b612a9981612a86565b8114612aa457600080fd5b50565b600081359050612ab681612a90565b92915050565b600060208284031215612ad257612ad161290f565b5b6000612ae084828501612aa7565b91505092915050565b600073ffffffffffffffffffffffffffffffffffffffff82169050919050565b6000612b1482612ae9565b9050919050565b612b2481612b09565b82525050565b6000602082019050612b3f6000830184612b1b565b92915050565b612b4e81612b09565b8114612b5957600080fd5b50565b600081359050612b6b81612b45565b92915050565b60008060408385031215612b8857612b8761290f565b5b6000612b9685828601612b5c565b9250506020612ba785828601612aa7565b9150509250929050565b612bba81612a86565b82525050565b6000602082019050612bd56000830184612bb1565b92915050565b600080600060608486031215612bf457612bf361290f565b5b6000612c0286828701612b5c565b9350506020612c1386828701612b5c565b9250506040612c2486828701612aa7565b9150509250925092565b600080fd5b600080fd5b7f4e487b7100000000000000000000000000000000000000000000000000000000600052604160045260246000fd5b612c7082612a1a565b810181811067ffffffffffffffff82111715612c8f57612c8e612c38565b5b80604052505050565b6000612ca2612905565b9050612cae8282612c67565b919050565b600067ffffffffffffffff821115612cce57612ccd612c38565b5b612cd782612a1a565b9050602081019050919050565b82818337600083830152505050565b6000612d06612d0184612cb3565b612c98565b905082815260208101848484011115612d2257612d21612c33565b5b612d2d848285612ce4565b509392505050565b600082601f830112612d4a57612d49612c2e565b5b8135612d5a848260208601612cf3565b91505092915050565b60008060408385031215612d7a57612d7961290f565b5b600083013567ffffffffffffffff811115612d9857612d97612914565b5b612da485828601612d35565b9250506020612db585828601612aa7565b9150509250929050565b600060208284031215612dd557612dd461290f565b5b6000612de384828501612b5c565b91505092915050565b600081519050919050565b600082825260208201905092915050565b6000819050602082019050919050565b612e2181612a86565b82525050565b6000612e338383612e18565b60208301905092915050565b6000602082019050919050565b6000612e5782612dec565b612e618185612df7565b9350612e6c83612e08565b8060005b83811015612e9d578151612e848882612e27565b9750612e8f83612e3f565b925050600181019050612e70565b5085935050505092915050565b60006020820190508181036000830152612ec48184612e4c565b905092915050565b600060208284031215612ee257612ee161290f565b5b600082013567ffffffffffffffff811115612f0057612eff612914565b5b612f0c84828501612d35565b91505092915050565b612f1e8161299e565b8114612f2957600080fd5b50565b600081359050612f3b81612f15565b92915050565b60008060408385031215612f5857612f5761290f565b5b6000612f6685828601612b5c565b9250506020612f7785828601612f2c565b9150509250929050565b600067ffffffffffffffff821115612f9c57612f9b612c38565b5b612fa582612a1a565b9050602081019050919050565b6000612fc5612fc084612f81565b612c98565b905082815260208101848484011115612fe157612fe0612c33565b5b612fec848285612ce4565b509392505050565b600082601f83011261300957613008612c2e565b5b8135613019848260208601612fb2565b91505092915050565b6000806000806080858703121561303c5761303b61290f565b5b600061304a87828801612b5c565b945050602061305b87828801612b5c565b935050604061306c87828801612aa7565b925050606085013567ffffffffffffffff81111561308d5761308c612914565b5b61309987828801612ff4565b91505092959194509250565b600080604083850312156130bc576130bb61290f565b5b60006130ca85828601612b5c565b92505060206130db85828601612b5c565b9150509250929050565b7f4e487b7100000000000000000000000000000000000000000000000000000000600052602260045260246000fd5b6000600282049050600182168061312c57607f821691505b60208210810361313f5761313e6130e5565b5b50919050565b7f4552433732313a20617070726f76616c20746f2063757272656e74206f776e6560008201527f7200000000000000000000000000000000000000000000000000000000000000602082015250565b60006131a16021836129df565b91506131ac82613145565b604082019050919050565b600060208201905081810360008301526131d081613194565b9050919050565b7f4552433732313a20617070726f76652063616c6c6572206973206e6f7420746f60008201527f6b656e206f776e6572206f7220617070726f76656420666f7220616c6c000000602082015250565b6000613233603d836129df565b915061323e826131d7565b604082019050919050565b6000602082019050818103600083015261326281613226565b9050919050565b7f4552433732313a2063616c6c6572206973206e6f7420746f6b656e206f776e6560008201527f72206f7220617070726f76656400000000000000000000000000000000000000602082015250565b60006132c5602d836129df565b91506132d082613269565b604082019050919050565b600060208201905081810360008301526132f4816132b8565b9050919050565b7f455243373231456e756d657261626c653a206f776e657220696e646578206f7560008201527f74206f6620626f756e6473000000000000000000000000000000000000000000602082015250565b6000613357602b836129df565b9150613362826132fb565b604082019050919050565b600060208201905081810360008301526133868161334a565b9050919050565b600081905092915050565b50565b60006133a860008361338d565b91506133b382613398565b600082019050919050565b60006133c98261339b565b9150819050919050565b7f5769746864726177616c206661696c6564000000000000000000000000000000600082015250565b60006134096011836129df565b9150613414826133d3565b602082019050919050565b60006020820190508181036000830152613438816133fc565b9050919050565b7f43616c6c657220646f6573206e6f74206f776e20746865204e46540000000000600082015250565b6000613475601b836129df565b91506134808261343f565b602082019050919050565b600060208201905081810360008301526134a481613468565b9050919050565b7f4e487b7100000000000000000000000000000000000000000000000000000000600052603260045260246000fd5b7f4e487b7100000000000000000000000000000000000000000000000000000000600052601160045260246000fd5b600061351482612a86565b91507fffffffffffffffffffffffffffffffffffffffffffffffffffffffffffffffff8203613546576135456134da565b5b600182019050919050565b7f455243373231456e756d657261626c653a20676c6f62616c20696e646578206f60008201527f7574206f6620626f756e64730000000000000000000000000000000000000000602082015250565b60006135ad602c836129df565b91506135b882613551565b604082019050919050565b600060208201905081810360008301526135dc816135a0565b9050919050565b60008190508160005260206000209050919050565b60006020601f8301049050919050565b600082821b905092915050565b6000600883026136457fffffffffffffffffffffffffffffffffffffffffffffffffffffffffffffffff82613608565b61364f8683613608565b95508019841693508086168417925050509392505050565b6000819050919050565b600061368c61368761368284612a86565b613667565b612a86565b9050919050565b6000819050919050565b6136a683613671565b6136ba6136b282613693565b848454613615565b825550505050565b600090565b6136cf6136c2565b6136da81848461369d565b505050565b5b818110156136fe576136f36000826136c7565b6001810190506136e0565b5050565b601f82111561374357613714816135e3565b61371d846135f8565b8101602085101561372c578190505b613740613738856135f8565b8301826136df565b50505b505050565b600082821c905092915050565b600061376660001984600802613748565b1980831691505092915050565b600061377f8383613755565b9150826002028217905092915050565b613798826129d4565b67ffffffffffffffff8111156137b1576137b0612c38565b5b6137bb8254613114565b6137c6828285613702565b600060209050601f8311600181146137f957600084156137e7578287015190505b6137f18582613773565b865550613859565b601f198416613807866135e3565b60005b8281101561382f5784890151825560018201915060208501945060208101905061380a565b8683101561384c5784890151613848601f891682613755565b8355505b6001600288020188555050505b505050505050565b7f4552433732313a20696e76616c696420746f6b656e2049440000000000000000600082015250565b60006138976018836129df565b91506138a282613861565b602082019050919050565b600060208201905081810360008301526138c68161388a565b9050919050565b7f4552433732313a2061646472657373207a65726f206973206e6f74206120766160008201527f6c6964206f776e65720000000000000000000000000000000000000000000000602082015250565b60006139296029836129df565b9150613934826138cd565b604082019050919050565b600060208201905081810360008301526139588161391c565b9050919050565b7f496e76616c6964206d696e7420616d6f756e7400000000000000000000000000600082015250565b60006139956013836129df565b91506139a08261395f565b602082019050919050565b600060208201905081810360008301526139c481613988565b9050919050565b7f45786365656473206d6178696d756d206d696e7420616d6f756e740000000000600082015250565b6000613a01601b836129df565b9150613a0c826139cb565b602082019050919050565b60006020820190508181036000830152613a30816139f4565b9050919050565b6000613a4282612a86565b9150613a4d83612a86565b9250828201905080821115613a6557613a646134da565b5b92915050565b7f45786365656473206d6178696d756d20737570706c7900000000000000000000600082015250565b6000613aa16016836129df565b9150613aac82613a6b565b602082019050919050565b60006020820190508181036000830152613ad081613a94565b9050919050565b6000613ae282612a86565b9150613aed83612a86565b9250828202613afb81612a86565b91508282048414831517613b1257613b116134da565b5b5092915050565b7f496e73756666696369656e74207061796d656e74000000000000000000000000600082015250565b6000613b4f6014836129df565b9150613b5a82613b19565b602082019050919050565b60006020820190508181036000830152613b7e81613b42565b9050919050565b7f4552433732314d657461646174613a2055524920717565727920666f72206e6f60008201527f6e6578697374656e7420746f6b656e0000000000000000000000000000000000602082015250565b6000613be1602f836129df565b9150613bec82613b85565b604082019050919050565b60006020820190508181036000830152613c1081613bd4565b9050919050565b600081905092915050565b6000613c2d826129d4565b613c378185613c17565b9350613c478185602086016129f0565b80840191505092915050565b60008154613c6081613114565b613c6a8186613c17565b94506001821660008114613c855760018114613c9a57613ccd565b60ff1983168652811515820286019350613ccd565b613ca3856135e3565b60005b83811015613cc557815481890152600182019150602081019050613ca6565b838801955050505b50505092915050565b6000613ce28286613c22565b9150613cee8285613c22565b9150613cfa8284613c53565b9150819050949350505050565b7f4f776e61626c653a206e6577206f776e657220697320746865207a65726f206160008201527f6464726573730000000000000000000000000000000000000000000000000000602082015250565b6000613d636026836129df565b9150613d6e82613d07565b604082019050919050565b60006020820190508181036000830152613d9281613d56565b9050919050565b7f4552433732313a207472616e736665722066726f6d20696e636f72726563742060008201527f6f776e6572000000000000000000000000000000000000000000000000000000602082015250565b6000613df56025836129df565b9150613e0082613d99565b604082019050919050565b60006020820190508181036000830152613e2481613de8565b9050919050565b7f4552433732313a207472616e7366657220746f20746865207a65726f2061646460008201527f7265737300000000000000000000000000000000000000000000000000000000602082015250565b6000613e876024836129df565b9150613e9282613e2b565b604082019050919050565b60006020820190508181036000830152613eb681613e7a565b9050919050565b7f4f776e61626c653a2063616c6c6572206973206e6f7420746865206f776e6572600082015250565b6000613ef36020836129df565b9150613efe82613ebd565b602082019050919050565b60006020820190508181036000830152613f2281613ee6565b9050919050565b7f4552433732313a20617070726f766520746f2063616c6c657200000000000000600082015250565b6000613f5f6019836129df565b9150613f6a82613f29565b602082019050919050565b60006020820190508181036000830152613f8e81613f52565b9050919050565b7f4552433732313a207472616e7366657220746f206e6f6e20455243373231526560008201527f63656976657220696d706c656d656e7465720000000000000000000000000000602082015250565b6000613ff16032836129df565b9150613ffc82613f95565b604082019050919050565b6000602082019050818103600083015261402081613fe4565b9050919050565b7f4e487b7100000000000000000000000000000000000000000000000000000000600052601260045260246000fd5b7f455243373231456e756d657261626c653a20636f6e736563757469766520747260008201527f616e7366657273206e6f7420737570706f727465640000000000000000000000602082015250565b60006140b26035836129df565b91506140bd82614056565b604082019050919050565b600060208201905081810360008301526140e1816140a5565b9050919050565b600081519050919050565b600082825260208201905092915050565b600061410f826140e8565b61411981856140f3565b93506141298185602086016129f0565b61413281612a1a565b840191505092915050565b60006080820190506141526000830187612b1b565b61415f6020830186612b1b565b61416c6040830185612bb1565b818103606083015261417e8184614104565b905095945050505050565b60008151905061419881612945565b92915050565b6000602082840312156141b4576141b361290f565b5b60006141c284828501614189565b91505092915050565b60006141d682612a86565b91506141e183612a86565b92508282039050818111156141f9576141f86134da565b5b92915050565b7f4e487b7100000000000000000000000000000000000000000000000000000000600052603160045260246000fd5b7f4552433732313a206d696e7420746f20746865207a65726f2061646472657373600082015250565b60006142646020836129df565b915061426f8261422e565b602082019050919050565b6000602082019050818103600083015261429381614257565b9050919050565b7f4552433732313a20746f6b656e20616c7265616479206d696e74656400000000600082015250565b60006142d0601c836129df565b91506142db8261429a565b602082019050919050565b600060208201905081810360008301526142ff816142c3565b905091905056fea264697066735822122095501df8dd742c7f690717100995ce67c30dd96565fdd3933c49b5e9f516358864736f6c63430008120033",
  "linkReferences": {},
  "deployedLinkReferences": {}
}